:020000040800F2
:1000000090050020B13D0008213D0008233D000877
:10001000253D0008273D0008293D0008000000009C
:100020000000000000000000000000002B3D000860
:100030002D3D0008000000002F3D0008313D000864
:10004000E53D0008E93D0008ED3D0008F13D0008F0
:10005000F53D0008F93D0008FD3D0008013E00089F
:10006000053E0008093E00080D3E0008113E00084C
:10007000153E0008193E00081D3E0008213E0008FC
:10008000253E0008293E00082D3E0008313E0008AC
:10009000353E0008393E00083D3E0008413E00085C
:1000A000453E0008493E00084D3E0008513E00080C
:1000B000353D00080000000000000000553E00082B
:1000C000593E000800000000000000005D3E0008EE
:1000D00000000000613E0008653E000800000000CE
:1000E000693E00086D3E00080000000000000000AE
:1000F0000000000000000000000000000000000000
:10010000000000000000000000000000713E000838
:100110000000000000000000753E0008793E000865
:100120007D3E0008813E0008853E0008893E0008AB
:100130008D3E0008000000000000000000000000EC
:10014000913E0008953E0008993E00089D3E00083B
:10015000A13E0008A53E0008A93E0008AD3E0008EB
:10016000B13E0008B53E0008B93E0008000000009E
:10017000BD3E0008C13E0008000000000000000075
:10018000C53E0008C93E0008CD3E000838B5040051
:1001900001D1012032BD04F140056878002804D166
:1001A00000202870204600F0F3FB242068702068AF
:1001B0000168490849000160606820F070602168AA
:1001C00008612068816821F400418160A06821688D
:1001D000E268012A03D140F40040886002E040F464
:1001E00004408860E068022803D14FF40060216871
:1001F00048602068416841F0007141F4004141606D
:100200002068C16821F40041C1602169606901432F
:10021000A06941EA00212068C160E169206A0143C8
:10022000206801602068016841F001010160002040
:1002300068602020687000202063A87032BD2DE91E
:10024000F843044688461746994604F140067078FC
:10025000202840F096803078012800F0928001201C
:10026000307000F055FC05460095192301224FF42B
:100270000041204600F09FFA002801D0012081E0D3
:10028000212070701020B070002070606762A4F8A8
:100290002A906063DFF87C02089F618DB1F5807F52
:1002A0000AD3FF21218500904FF080730A46414612
:1002B000204600F03FFB15E0628D228500904FF054
:1002C0000073D2B24146204600F034FB0AE0FF2022
:1002D0002085002000904FF08073FF224146204689
:1002E00000F028FB608D00282A463946204633D08E
:1002F00000F08FFA002801D0012043E0606A007806
:1003000021688862606A401C6062608D401E608562
:10031000208D411E2185608D0028E3D089B20029FF
:10032000E0D100953B4600228021204600F043FAB0
:10033000002801D0012025E0608DB0F5807FC6D275
:10034000628D2285002000904FF00073D2B24146AA
:10035000204600F0EFFAC5E700F085FA002801D04A
:1003600001200FE020202168C86121684A68DFF879
:10037000380302404A60202070700020B070307056
:1003800000E00220BDE8F2832DE9FE4F07460D464E
:1003900092469B4607F140067078202840F0B780CF
:1003A000DDF83080B8F1000F04D0DDF83490484615
:1003B000002804D14FF4007070600120A8E030786C
:1003C000012800F0A4800120307000F0A1FB044659
:1003D0000094192301224FF40041384600F0EBF954
:1003E000002801D0012093E05B4652462120707026
:1003F0004020B07000207060C7F82480A7F82A90D1
:10040000786301940E9800902946384600F050F920
:10041000002803D000203070012079E0788DB0F5FD
:10042000807F3FD3FF203885002000904FF08073FD
:10043000FF222946384600F07DFADDF83880224652
:100440004146384600F0E5F9002837D1786A00784F
:1004500039688862786A401C7862788D401E788599
:10046000388D411E3985788D002836D089B2002913
:1004700033D10094434600228021384600F09BF996
:1004800000281DD1788DB0F5807F1BD3FF203885E3
:10049000002000904FF08073FF222946384600F07C
:1004A00049FA1AE07A8D3A85002000904FF00073E7
:1004B000D2B22946384600F03DFABEE7012027E0D7
:1004C000012025E07A8D3A85002000904FF00073DE
:1004D000D2B22946384600F02DFA788D0028AED1E8
:1004E00022464146384600F0BEF9002801D00120DE
:1004F0000EE020203968C86139684A686A480240BD
:100500004A60202070700020B070307000E002203F
:10051000BDE8FE8F002000802DE9FE4F05460E4607
:1005200092469B4605F140046078202840F0B88050
:100530000C9F002F04D0DDF834904846002804D1E9
:100540004FF4007060600120ABE02078012800F0DB
:10055000A7800120207000F0DBFA8046CDF80080F3
:10056000192301224FF40041284600F024F9002805
:1005700001D0012095E05B46524622206070402069
:10058000A070002060606F62A5F82A906863CDF8C3
:1005900004800E9800903146284600F0C3F80028E9
:1005A00003D00020207001207BE04048698DB1F528
:1005B000807F41D3FF21298500904FF080730A4648
:1005C0003146284600F0B6F90E9FCDF800803B4634
:1005D00000220421284600F0EEF8002837D12868D0
:1005E000406A696A0870686A401C6862288D401E0B
:1005F0002885688D401E6885688D002836D0288D36
:10060000002833D1CDF800803B46002280212846C7
:1006100000F0D1F800281CD1688DB0F5807F1AD386
:10062000FF202885002000904FF08073FF22314684
:10063000284600F07FF919E06A8D2A8500904FF076
:100640000073D2B23146284600F074F9BCE70120AD
:1006500027E0012025E06A8D2A85002000904FF0D8
:100660000073D2B23146284600F064F9688D002844
:10067000ABD142463946284600F0F5F8002801D0B3
:1006800001200EE020202968C86129684A680648D0
:1006900002404A60202060700020A070207000E0BE
:1006A0000220BDE8FE8F000000E800FE002400806C
:1006B0002DE9FC41044617469846089D099EDFF83F
:1006C000980200904FF080734246D2B2204600F06C
:1006D00031F932462946204600F09BF8002801D027
:1006E00001201DE0B8F1010F0CD03846000A216846
:1006F000886232462946204600F08BF8002801D057
:1007000001200DE0FFB22068876200962B46002290
:100710008021204600F04FF8401E8041C043C00FAA
:10072000BDE8F6812DE9FC41044617469846089D30
:10073000099EDFF82402009000234246D2B22046F0
:1007400000F0F8F832462946204600F062F800280A
:1007500001D001201DE0B8F1010F0CD03846000A8D
:100760002168886232462946204600F052F8002867
:1007700001D001200DE0FFB22068876200962B4671
:1007800000224021204600F016F8401E8041C04360
:10079000C00FBDE8F681000001688A69920701D5A3
:1007A00000228A6200688169C90703D4816941F027
:1007B0000101816170472DE9F04105460E4617465B
:1007C0001C46DDF81880286880693040B04201D1AD
:1007D000012000E000203946884217D114F1010FB2
:1007E000F1D000F095F9A0EB0800844201D3002C71
:1007F000E9D105F14000416841F02001416020212C
:100800004170002181700170012000E00020BDE8EE
:10081000F08170B505460C46164628688069800749
:100820001FD432462146284600F044F8002801D063
:10083000012070BD14F1010FEFD000F069F9801BA9
:10084000844201D3002CE8D105F14000416841F019
:100850002001416020214170002181700170012040
:1008600070BD002070BD70B505460C461646286860
:10087000806980061CD432462146284600F01AF8CA
:10088000002813D100F044F9801B844201D3002CCE
:10089000EDD105F14000416841F020014160202187
:1008A0004170002181700170012070BD012070BD78
:1008B000002070BD70B505460C4616462868806954
:1008C000C00634D528688169890616D414F1010F51
:1008D000F8D000F01DF9801B844201D3002CF1D127
:1008E00005F14000416841F0200141602021417044
:1008F000002181700170012070BD1021C161202094
:100900002968C8612846FFF747FF28684168134AED
:100910001140416005F14000416841F0040141602F
:1009200020214170002181700170012070BD0020E4
:1009300070BD000070B4039C00684568084E46EA2C
:100940005456B543C1F30901294341EA0241194311
:100950002143416070BC70470020008000E800FE29
:10096000FF63FF0381B06548816841F00101816048
:10097000816801F0010100910099016841F0805106
:100980000160006800F080500090009801B070474E
:1009900010B586B0044614220021684600F0BEF867
:1009A00020685749884238D1564C206840F00100F1
:1009B0002060206800F0010005900598206840F054
:1009C00002002060206800F0020005900598802059
:1009D0000090122001900120029003200390042037
:1009E000049069464FF0904000F0A2F8102000906B
:1009F0001220019001200290032003900420049013
:100A00006946414800F094F8E06840F40000E06076
:100A1000E06800F400000090009806B010BD006887
:100A2000B0F1804F00D0704780B53448016841F084
:100A300001010160006800F00100009000980022B0
:100A400011461C2000F084F91C20BDE8024000F093
:100A50008EB910B586B004461422002101A800F01A
:100A60005DF82068B0F1804F17D12648016841F049
:100A700001010160006800F00100009000980A2068
:100A80000190022002900020039004900120059024
:100A900001A94FF0904000F04BF806B010BD10B522
:100AA00086B004461422002101A800F037F820681F
:100AB0001649884220D11348416941F4804141617F
:100AC000416901F4804100910099016841F00201FF
:100AD0000160006800F0020000900098C0200190C2
:100AE000022002900020039003200490072005902C
:100AF00001A9054800F01CF806B010BD58100240CE
:100B0000005C00404C1002400004004800380140E6
:100B100001480068704700BF8401002010B50446FA
:100B200010460A460146204600F030F9204610BD26
:100B3000F8B402460B46002428E0072103E052499E
:100B40008A42FAD10221B140294347F82C104F497B
:100B50000E68C5432E405F68FF0300D506430E6054
:100B60004E682E405F68BF0300D506434E608E6816
:100B70002E405F68FF0200D506438E60CE682E408F
:100B80005D68AD0200D50643CE60641C186801465E
:100B9000E14070D00121A1400840F6D05D68022DEF
:100BA00001D0122D13D12546ED0802EB8506356ADA
:100BB000A70007F01C074FF00F0C0CFA07FC25EA02
:100BC0000C05D3F810C00CFA07F73D4335621768DF
:100BD00065000326AE40F643374093F804C00CF09E
:100BE000030C0CFA05FC4CEA070717605F68012F3D
:100BF00005D0022F03D0112F01D0122F10D19768EA
:100C00003740D3F80CC00CFA05FC4CEA0707976094
:100C100057688F435968C1F30011A1400F435760D3
:100C2000D16831409E6806FA05F52943D1605968BC
:100C3000C900AAD516490D6845F001050D6009687F
:100C400001F0010100910099A4464FEA9C0C114F5C
:100C500057F82C50A60006F00C060F21B1408D432A
:100C6000B2F1904F01D100216DE70B498A427FF428
:100C700066AF012167E7F1BC7047002A01D08161AE
:100C8000704781627047000000080048000401407E
:100C9000601002400800014000040048354A136813
:100CA0004FF6FF010B40000200F4E06018433249A8
:100CB0000843106070472F480068C0F30220704757
:100CC000010007D4012200F01F018A402B4940098E
:100CD00041F8202070470901020002D428488154BD
:100CE0007047284802F00F02104400F8041C7047B7
:100CF00010B400F00700C0F10703052B00D3042354
:100D0000041D072C01D2002000E0C01E012404FABB
:100D100003F35B1E1940814004FA00F0401E1040AE
:100D2000084310BC704710B5401EB0F1807F01D35E
:100D3000012010BD144C60600F214FF0FF30FFF711
:100D4000CAFF0020A06007202060002010BDA5E79A
:100D500070B504460D461646FFF7ADFF32462946EC
:100D6000FFF7C6FF01462046BDE87040B3E7A7E79E
:100D7000D9E700000CED00E00000FA0500E100E01A
:100D800000E400E018ED00E010E000E062F30F2264
:100D900062F31F42401810F0030308D0C91A1FD392
:100DA000DB0748BF00F8012D28BF20F8022D1300F3
:100DB00030B414461546103928BF20E93C00FAD853
:100DC000490728BF20E90C0048BF40F8042D8900DE
:100DD00028BF20F8022D48BF00F8012D30BC704715
:100DE000C91818BF00F8012DCB0728BF00F8012D46
:100DF000704730B4002513E050F8042BD30744BFEC
:100E0000A9F101039A18091F042942F8045BFAD2D8
:100E100013468C0744BF15809B1CC90748BF1D7033
:100E200050F8041B0029E7D130BC70472DE9FC477E
:100E3000040000F07E82DFF86467B56805F00C05F9
:100E4000D6F80C8008F00308DFF860772078C00639
:100E500040F18680002D04D00C2D5BD1B8F1010F3C
:100E600058D13068800703D5A069002800F061825E
:100E70003068000703D5316801F0F00103E07968BC
:100E8000090901F0F001206A814216D200F048FB06
:100E9000002840F04E82306840F008003060316831
:100EA00021F0F001206A01433160706820F47F4036
:100EB000E16940EA0120706016E0306840F0080007
:100EC0003060316821F0F001206A014331607068C0
:100ED00020F47F40E16940EA01207060206A00F060
:100EE0001FFB002840F0258200F0B3FADFF8C0169F
:100EF000B268C2F30312895C01F01F01C840DFF839
:100F0000A0160860DFF89C06006800F067FB01008F
:100F100026D011E2A0690028306864D040F00100BA
:100F20003060FFF7F5FD81463068800707D4FFF792
:100F3000EFFDA0EB09000328F6D30320FCE13068A5
:100F400040F008003060306820F0F000216A08436B
:100F50003060706820F47F40E16940EA01207060F1
:100F60002078C0070DD5082D04D00C2D4BD1B8F139
:100F7000030F48D13068800303D56068002800F073
:100F8000D8812078800714D5042D04D00C2D73D17E
:100F9000B8F1020F70D13068400503D5E068002831
:100FA00000F0C781706820F0F850216940EA0160C4
:100FB00070602078000740F19C80606900287868A4
:100FC00000F0878040F001007860FFF7A1FD8046C7
:100FD0007868800700F18D80FFF79AFDA0EB08008C
:100FE0000328F5D3A9E7400840003060FFF790FDE3
:100FF000814630688007B3D5FFF78AFDA0EB090072
:101000000328F6D399E76068B0F5803F04D13068D3
:1010100040F48030306012E0B0F5A02F306807D186
:1010200040F480203060306840F48030306006E06A
:1010300020F480303060306820F4802030606068B8
:1010400000280CD0FFF764FD81463068800398D4F7
:10105000FFF75EFDA0EB09006528F6D36DE7FFF70B
:1010600057FD8146306880038BD5FFF751FDA0EB1B
:1010700009006528F6D360E7E0680028306817D0DB
:1010800040F480703060FFF743FD804630684005D3
:1010900006D4FFF73DFDA0EB08000328F6D34CE78C
:1010A000706820F0F850216940EA0160706080E7C4
:1010B00020F480703060FFF72BFD804630684005DB
:1010C0007FF577AFFFF724FDA0EB08000328F5D3E9
:1010D00033E7400840007860FFF71AFD80467868E3
:1010E000800706D5FFF714FDA0EB08000328F6D310
:1010F00023E7207840076BD54FF00008B06DC000A3
:101100000AD4B06D40F08050B065B06D00F08050F2
:10111000009000984FF00108DFF89894D9F800008B
:10112000C00513D4D9F8000040F48070C9F800005D
:10113000FFF7EEFC8246D9F80000C00506D4FFF7A1
:10114000E7FCA0EB0A000328F5D3F6E6A068012827
:1011500004D1386840F00100386011E00528386893
:1011600007D140F004003860386840F00100386072
:1011700006E0400840003860386820F0040038601D
:10118000A06800280ED0FFF7C3FC814638688007AE
:1011900017D4FFF7BDFCA0EB090041F2893188426A
:1011A000F4D3CAE6FFF7B4FC81463868800708D557
:1011B000FFF7AEFCA0EB090041F289318842F4D37D
:1011C000BBE6B8F1010F03D1B06D20F08050B065DF
:1011D0002078800623D5606A0028B8680FD040F0D8
:1011E0000100B860FFF794FC8046B868800716D409
:1011F000FFF78EFCA0EB08000328F6D39DE640081D
:101200004000B860FFF784FC8046B868800706D5C8
:10121000FFF77EFCA0EB08000328F6D38DE6A06A5A
:10122000002800F088800C2D58D00228306820F06B
:10123000807030603AD1FFF76BFC05463068800162
:1012400005D5FFF765FC401B0328F7D375E6F0686A
:10125000DFF864130840E16A0843216B491E40EA45
:101260000110616B40EA0120E16B4908491E40EA28
:101270004150216C4908491E40EA4160A16B40EA97
:10128000C160F060306840F080703060F06840F01D
:101290008070F060FFF73CFC0446306880014AD45F
:1012A000FFF736FC001B0328F7D346E63068000141
:1012B00003D4F06880088000F060F168DFF8FC0279
:1012C0000140F160FFF724FC04463068800132D50C
:1012D000FFF71EFC001B0328F7D32EE6012828D0B9
:1012E000F06800F00301E26A914222D100F070013F
:1012F000226B521EB1EB021F1BD100F4FE41626B48
:10130000B1EB022F15D100F07841A26BB1EBC26FA7
:101310000FD100F4C001E26B5208521EB1EB425FE4
:1013200007D100F0C060216C4908491EB0EB416F45
:1013300001D0012000E00020BDE8F6872DE9F04152
:1013400004460F46002C5BD0DFF87462306800F072
:101350000700B84209D23068C00857EAC0003060C0
:10136000306800F00700B8424AD1DFF830522078E8
:10137000C0072DD56068032803D1296889010ED4E0
:101380003EE0022803D12968890308D438E0002808
:10139000296802D1890702D432E0490530D5A9680D
:1013A000890850EA8100A860FFF7B2FB8046A86870
:1013B00000F00C006168B0EB810F09D0FFF7A8FBCB
:1013C000A0EB080041F289318842F0D303203EE0CF
:1013D0002078800705D5A96821F0F001A0680143B5
:1013E000A960306800F0070087420BD23068C0085F
:1013F00057EAC0003060306800F00700B84201D002
:10140000012024E02078400705D5A96821F4E06197
:10141000E0680143A9602078000706D5A86820F499
:101420006050216940EAC100A86000F012F86049EC
:10143000AA68C2F30312895C01F01F01C840584931
:10144000086058480068BDE8F04100F0C7B8BDE842
:10145000F08110B400231946504A906800F00C0047
:10146000D46804F00304002803D00C2813D1012C05
:1014700011D113681B0704D44B4B1B68C3F3032320
:1014800002E01368C3F303134F4C54F823300028D1
:1014900008D1194606E0042801D14C4902E0082889
:1014A00000D14B490C281BD1D06800F00300022862
:1014B00002D0032802D002E0444B00E0444BD06845
:1014C000C0F30211491CD068C0F306204343B3FBAC
:1014D000F1F0D168C1F34161491C4900B0FBF1F161
:1014E000084610BC70472E480068704780B5FFF76B
:1014F000FAFF3849334A1268C2F30222895C01F0CC
:101500001F01C84002BD80B5FFF7EDFF31492D4AEC
:101510001268C2F3C222895C01F01F01C84002BDFB
:101520007CB5054600242C4E3068C00002D500F082
:1015300081F80EE0306840F080503060306800F094
:1015400080500090009800F075F8316821F08051CB
:101550003160B0F5007F07D1802D0FD9A12D01D3C7
:1015600002240BE0012409E0802D01D9032405E0C9
:1015700001D1022402E0702D00D10124104801683D
:10158000C90854EAC1010160006800F00700A042E8
:1015900001D0012076BD002076BD00000010024081
:1015A000080000200000002094100240901002402B
:1015B000A03D0008007000408C809D01FFFFEEFE02
:1015C0000020024008100240803C00080024F40083
:1015D00000127A00DC3D00085810024038B505467C
:1015E00000241148006800281AD04FF47A71B1FB2A
:1015F000F0F00E490968B1FBF0F0FFF7B9FB0028E5
:101600000CD1102D08D2224629464FF0FF30FFF7AB
:101610009FFB0748056004E0012402E0012400E08C
:101620000124204632BD00BF040000200800002035
:1016300000000020DFF86C00006800F4C060704714
:10164000DFF86010B0F5007F086800F4C0601ED1BC
:10165000B0F5007F24D0086820F4C06040F400702A
:101660000860DFF84400026832204243DFF83C00A3
:10167000B2FBF0F0401C00E0401E4A69520501D563
:101680000028F9D1486940050AD503207047B0F514
:10169000806F05D0086820F4C06040F48060086066
:1016A00000207047007000400800002040420F00FA
:1016B00038B5040001D1012032BD04F13C05687841
:1016C000002804D1002028702046FFF7A8F9022046
:1016D0006870211D206800F002FA01206870002067
:1016E00032BD38B5040001D1012032BD04F13C0502
:1016F0006878002804D100202870204600F085FB7F
:1017000002206870211D206800F0E9F9012068704E
:10171000002032BD10B504460122206800F066FBAF
:101720002068DFF84C10884207D0DFF84810884264
:1017300003D0DFF84410884201D1012100E00021EC
:10174000002903D0416C41F40041416421688A685A
:10175000DFF818000240062A06D0B2F5803F03D019
:10176000086840F001000860002010BD070001007B
:10177000002C0140004001400044014010B50446E7
:1017800020680169890717D5C168890714D56FF0EA
:1017900002010161012020772068806910F0030FA9
:1017A000204602D000F032FB04E000F030FB20467F
:1017B00000F02EFB0020207720680169490717D52B
:1017C000C168490714D56FF0040101610220207738
:1017D0002068806910F4407F204602D000F016FB9C
:1017E00004E000F014FB204600F012FB00202077FC
:1017F00020680169090717D5C168090714D56FF07A
:1018000008010161042020772068C06910F0030FEF
:10181000204602D000F0FAFA04E000F0F8FA204680
:1018200000F0F6FA0020207720680169C90617D574
:10183000C168C90614D56FF0100101610820207736
:101840002068C06910F4407F204602D000F0DEFA24
:1018500004E000F0DCFA204600F0DAFA00202077FD
:1018600020680169C90708D5C168C90705D56FF0A7
:1018700001010161204600F0CCFA206801690906E7
:1018800008D5C168090605D56FF0800101612046C1
:1018900000F0C0FA20680169C90508D5C1680906C9
:1018A00005D56FF480710161204600F0B4FA20681C
:1018B0000169490608D5C168490605D56FF04001A0
:1018C0000161204600F0A8FA2068016989060AD55E
:1018D000C168890607D56FF0200101612046BDE887
:1018E000104000F09ABA10BD70B506460D4606F1DC
:1018F0003C042078012801D1022070BD0120207015
:1019000002206070002A0AD0042A1BD0082A2DD099
:101910000C2A3ED0102A50D0142A61D073E03068CF
:1019200000F012F93068816941F008018161306886
:10193000816921F00401816131688A692869024363
:101940008A6160E0306800F033F93068816941F401
:10195000006181613068816921F480618161306852
:1019600081692A6941EA022181614CE0306800F016
:1019700050F93068C16941F00801C1613068C1693E
:1019800021F00401C1613168CA6928690243CA6152
:1019900039E0306800F06DF93068C16941F40061E8
:1019A000C1613068C16921F48061C1613068C16979
:1019B0002A6941EA0221C16125E0306800F080F91E
:1019C0003068416D41F0080141653068416D21F09A
:1019D0000401416531684A6D286902434A6512E095
:1019E000306800F093F93068416D41F40061416561
:1019F0003068416D21F4806141653068416D2A692C
:101A000041EA02214165012060700020207070BD14
:101A100038B5054605F13C042078012801D10220A3
:101A200032BD01202070022060702B689A68DFF8B8
:101A30002C0302409A600868020047D0102A45D063
:101A4000202A43D0302A41D0402A35D0502A1FD0F6
:101A5000602A27D0702A03D0B2F5005F0CD039E09D
:101A6000CB684A688968286800F0B5F929688868F1
:101A700040F0770088602DE0CB684A688968286864
:101A800000F0A9F92868816841F48041816021E073
:101A9000CA684968286800F071F95021286800F088
:101AA00092F917E0CA684968286800F079F960215E
:101AB000286800F088F90DE0CA684968286800F0D5
:101AC0005DF94021286800F07EF903E001462868AE
:101AD00000F079F9012060700020207032BD10B450
:101AE0000368DFF87C42A04202D0B0F1804F03D1FE
:101AF00023F070034A681343A0420AD0B0F1804F2C
:101B000007D0DFF86022904203D0DFF85C229042D9
:101B100003D123F44073CA68134323F080034A6956
:101B2000134303608A68C2620A688262A04205D0D9
:101B30008C4A904202D08C4A904201D109690163DB
:101B40000121416110BC704770B4026A5208520012
:101B50000262046A43688569844A15400A6815432D
:101B600024F002048A6814437D4EB04205D07D4AB9
:101B7000904202D07C4A904205D124F00804CA6801
:101B8000144324F00404B04205D0764A904202D0B7
:101B9000754A904205D123F440734A6913438A6918
:101BA00013434360856149684163046270BC7047B8
:101BB00070B4026A22F010020262036A4468856906
:101BC0006B4A15400A6845EA022523F020038A681B
:101BD00043EA0213624A904206D123F08003CE68A2
:101BE00043EA061323F0400305D05E4A904202D038
:101BF0005D4A904206D124F440644E698A691643D6
:101C000044EA86044460856149688163036270BC6C
:101C1000704770B4026A22F480720262036A4468F8
:101C2000C569524A15400A68154323F400738A684F
:101C300043EA02234A4A904206D123F40063CE6865
:101C400043EA062323F4806305D0464A904202D03B
:101C5000454A904206D124F440544E698A6916439D
:101C600044EA06144460C5614968C163036270BCFC
:101C7000704730B4026A22F480520262036A4468F8
:101C8000C5693B4A15400A6845EA022523F400531A
:101C90008A6843EA0233324A904205D0314A904280
:101CA00002D0314A904204D124F480444A6944EA83
:101CB00082144460C56149680164036230BC7047A6
:101CC00030B4026A22F480320262036A4468456DCD
:101CD000284A15400A68154323F400338A6843EA0A
:101CE00002431F4A904205D01E4A904202D01E4A2B
:101CF000904204D124F480344A6944EA02244460C6
:101D0000456549688165036230BC704730B4026A3A
:101D100022F480120262036A4468456D164A154037
:101D20000A6845EA022523F400138A6843EA02534D
:101D30000B4A904205D00B4A904202D00A4A904288
:101D400004D124F480244A6944EA8224446045652D
:101D50004968C165036230BC704700008800FEFF1F
:101D6000002C014000400140004401408CFFFEFF78
:101D7000FF8CFFFE8FFFFEFFFF8FFFFE10B4036A94
:101D8000046A640864000462846924F0F00444EA8C
:101D90000214846123F00A031943016210BC7047E6
:101DA00010B4036A23F0100303628369046A23F406
:101DB000704343EA0233836124F0A00444EA01142F
:101DC000046210BC7047826822F07002114341F037
:101DD00007018160704710B4846824F47F44214374
:101DE000114341EA0321816010BC704710B401F037
:101DF0001F01036A01248C40A3430362036A02FAB1
:101E000001F11943016210BC704770477047704779
:101E100070477047704770477047704738B5040087
:101E200015D004F170056868002804D100202870DE
:101E30002046FEF734FE24206860206801684908C7
:101E400049000160204600F01FF8012801D101205F
:101E500032BD606A002802D0204600F087F9206871
:101E6000416821F4904141602068816821F02A0195
:101E700081602068016841F0010101602046BDE8F1
:101E8000324000F0D7B90000F8B5044600263546C8
:101E9000284622681368AC490B40A1680B432169AE
:101EA0000B4361690B43E1690B431360226853687C
:101EB00023F44053E1680B435360A3692768A34AA6
:101EC000974201D0216A0B43B96821F430610B437A
:101ED000BB6021689E4B99420BD19E4B1B6803F05F
:101EE0000303032B13D8DFE803F00237353901274A
:101EF0000EE0994B99421AD1964B1B6813F00C03D4
:101F000026D0042B28D0082B24D00C2B26D0102729
:101F1000914240F08480390006D0022920D0042963
:101F200020D0082921D023E0FFF7E0FA21E09142F8
:101F3000EDD1884B1B6813F4406309D0B3F5806F73
:101F40000AD0B3F5006F05D0B3F5406F06D0DEE7D9
:101F50000746DDE70227DBE70427D9E70827D7E7AD
:101F60007E4806E0FFF775FA03E04FF4004000E01A
:101F70000125002800F0E280626802EB42018842FD
:101F800002D31103814201D20125D7E0002F06D0F0
:101F9000022F15D0042F1FD0082F2ED034E0FFF7CA
:101FA000A5FA6268314641EA1061164676080027B4
:101FB00016EB002079413B4600F0A0F9064624E0EC
:101FC00010463146664E0F4616EB500079413B46AF
:101FD00000F094F9064618E0FFF73BFA62683146D4
:101FE00041EA106116467608002716EB0020794179
:101FF0003B4600F083F9064607E01046400800F52E
:102000000000B0FBF2F600E00125A6F5407055494E
:10201000884202D22068C66090E001258EE0E06927
:10202000B0F5004F4AD1082F38D8DFE807F0051087
:102030001B37233737372E00FFF758FA61680A46F7
:10204000520802EB4002B2FBF1F6B6B227E0FFF70E
:102050005AFA61680A46520802EB4002B2FBF1F6F6
:10206000B6B21CE06068404901EB5001B1FBF0F6EC
:10207000B6B214E0FFF7EDF961680A46520802EBC8
:102080004002B2FBF1F6B6B209E0606801464908C9
:1020900001F58031B1FBF0F6B6B200E001254FF654
:1020A000F071A6F11000884206D23140C6F342001A
:1020B00001432068C16041E001253FE0082F32D88C
:1020C000DFE807F0050E17311F3131312800FFF727
:1020D0000DFA616800EB5100B0FBF1F6B6B223E0F7
:1020E000FFF711FA616800EB5100B0FBF1F6B6B2F0
:1020F0001AE06068194901EB5001B1FBF0F6B6B285
:1021000012E0FFF7A6F9616800EB5100B0FBF1F6B1
:10211000B6B209E060680146490801F50041B1FB2B
:10212000F0F6B6B200E00125A6F110004FF6F0710E
:10213000884202D22068C66000E0012500202066A7
:1021400060662846F2BD0000F369FFEF00800040A2
:102150000038014088100240004400400024F40090
:10216000000024F400FD0F000048E80190F824105E
:10217000C90706D50268536823F40033816A0B430C
:10218000536090F82410890706D50268536823F439
:102190008033C16A0B43536090F82410490706D579
:1021A0000268536823F48023016B0B43536090F85B
:1021B0002410090706D50268536823F40043416BD5
:1021C0000B43536090F82410C90606D50268936843
:1021D00023F48053816B0B43936090F8241089069D
:1021E00006D50268936823F40053C16B0B439360D8
:1021F00090F82410490611D50268536823F480131F
:10220000016C0B435360016CB1F5801F06D102686D
:10221000536823F4C003416C0B43536090F82410BF
:10222000090606D501684A6822F40022806C024340
:102230004A6070477CB5044604F170050020E860F0
:10224000FEF766FC06462068006800070BD56FF0B5
:102250007E400090334600224FF40011204600F0EB
:102260001AF800280FD12068006840070DD56FF0DC
:102270007E400090334600224FF48001204600F05B
:102280000AF8002801D0032076BD20206860A860ED
:102290000020287076BD2DE9F04105460E46174610
:1022A0009846069C2868C0693040B04201D10120A0
:1022B00000E00020394688421DD114F1010FF1D011
:1022C000FEF726FCA0EB0800844201D3002CE9D1E4
:1022D0002868016821F4D071016028688168490884
:1022E0004900816005F1700020214160816000217A
:1022F0000170032000E00020BDE8F081BBBBE1B12C
:10230000B2F5803F80F07E80022A1ED98C46B1FB58
:10231000F2F102FB11C31B0443EA1043B3FBF2FCCE
:1023200002FB1C3380B240EA0343B3FBF2F002FB32
:10233000103240EA0C4000237047022A05D9844637
:10234000B0FBF2F002FB10C270474AB105D100F0B9
:10235000010249085FEA30007047002200237047FD
:1023600000F0E4B80B00020000210020704790420A
:1023700071EB030CF6D3B3F5803F2FD2F0B5B3FA6F
:1023800083F7B1FA81F4A7F10F0E3D1B5340CEF154
:10239000200602FA0EF2F3415340B5F10F0746D87A
:1023A0000F3C2C444140C4F12006A040F141414083
:1023B000B1FBF3F603FB1611A2FB0645001BA94176
:1023C00002D2761E8018594180EA010221FA0EF3EA
:1023D00062FA0EF200215A403046F0BD30B4B1FB33
:1023E000F3FC03FB1C11A2FB0C45001BA94103D20B
:1023F000ACF1010C8018594130BC02460B466046D6
:1024000000217047B2F1807F65D3F0B5B2FA82F750
:10241000B1FA81F4C7F10F063D1B22FA06F307F16A
:10242000110EF24120355A40B5F10F07B8D941409D
:10243000C4F12006A040F1414140B1FBF3FC03FB95
:102440001C11A2FB0C45001BA94103D2BCF1010CDD
:10245000801859410F2F12D30F3FC90341EA504151
:10246000B1FBF3F603FB1611A2FB0645D4EBC0301B
:10247000A94102D2761E8018594146EACC3C07B3E6
:102480004140C7F12006B840F1414140B1FBF3F6AD
:1024900003FB1611A2FB0645001BA94102D2761EC2
:1024A0008018594180EA010221FA0EF3C7F1200495
:1024B00062FA0EF20CFA07F05A402CFA04F130439B
:1024C000F0BD80EA010221FA0EF3002162FA0EF259
:1024D00060465A40F0BD8C46B1FBF2F102FB11C3DD
:1024E0001B0243EA1063B3FBF2FC02FB1C331B022A
:1024F0004CEA002043EA1063B3FBF2FC02FB1C33FE
:102500001B024CEA002043EA1063B3FBF2FC02FB1F
:102510001C331B024CEA002043EA1063B3FBF2FCBD
:1025200002FB1C324CEA002000237047704730B495
:102530000EE00268436802440830DC0744BFA9F19A
:102540000104E31852F8045B43F8045B091FF9D156
:1025500050F8041B0029ECD130BC704770B52DED4C
:10256000028B00F04BFA01221021DFF82004FEF765
:1025700084FB012280214FF09040FEF77EFB642017
:1025800000F04CFA00F0C7F800F0C8F900F049F983
:1025900000F01EF900F0A3F9DFF8F40300F052FA9E
:1025A00000F0D3FA00F027FBDFF8E84304212046CF
:1025B000FFF7B0F80C212046FFF7ACF8DFF8D8633E
:1025C000DFF8D853284600F0D8FA286800F03EFB20
:1025D0000022DFF8CC3300F04BFB00F06DFCDFF89D
:1025E000C4130860686800F031FB0022DFF8B033E4
:1025F00000F03EFB00F060FCDFF8AC130860A86858
:1026000000F024FB0022DFF8983300F031FB00F0EB
:1026100053FCDFF898130860E86800F54C509030E0
:1026200000F014FB0022DFF8883300F021FB0022C9
:10263000DFF8803300F074FC0022DF4B00F018FB61
:1026400000F03AFCDD490860304600F0DEFADC4D6F
:10265000306800F0FBFA41EC110BB0EE418AF0EE6D
:10266000618A706800F0F2FA41EC100BB0EE481A83
:10267000F0EE681A00F015FD51EC100B00F01CFC98
:10268000286095ED000ADFEDA30A30EE200A85ED03
:10269000000AB5EE400AF1EE10FA0AD510EE100A63
:1026A00000F008FDC74AC84B00F03AFC00F004FCFB
:1026B000286095ED000ADFED980AB4EE600AF1EEAD
:1026C00010FA0ADB10EE100A00F0F4FCBD4ABF4B12
:1026D00000F026FC00F0F0FB286095ED000ADFED2D
:1026E000AA0A20EE200A10EE100A00F0E3FCB54A18
:1026F000B74B00F0BDFA00F0DFFBB6490860B64802
:10270000007821688863B5480078216808646420EF
:1027100000F084F954E700B5ABB00022442105A8CD
:1027200000F0ECFC00221421684600F0E7FC0022D7
:10273000542116A800F0E2FC00F0FEFCA848016855
:1027400021F01801016014200590012007900B90E2
:1027500000200C9060200D9002200F90012010901E
:1027600011901020129007201390022014901590C1
:1027700005A8FEF75BFB002801D000F03DF90F2013
:10278000009003200190002002900390049001210A
:102790006846FEF7D3FD002801D000F02DF940F285
:1027A0000110169000201E90229016A800F0CCFC7C
:1027B000002801D000F020F94FF40070FEF740FF30
:1027C000002801D000F018F900F0EDFD2BB000BD9D
:1027D00010B56F4C83482060834860600020A06083
:1027E0000120E060002020616061A061E061206262
:1027F0002046FDF7CBFC002801D000F0FDF80021B9
:10280000204600F079FE002801D000F0F5F8002104
:10281000204600F09BFE002802D0BDE81040EBE00F
:1028200010BD10B58EB0002210210AA800F066FC81
:1028300000220C21684600F061FC00221C2103A844
:1028400000F05CFC534C4FF0804020600020606042
:10285000A060FF20E06000202061A0612046FEF71C
:1028600027FF002801D000F0C7F84FF480500A90ED
:102870000AA92046FFF7CCF8002801D000F0BCF8E8
:102880002046FEF72EFF002801D000F0B5F800200A
:10289000009002906946204600F080FE002801D09A
:1028A00000F0AAF8602003900020049005900790A3
:1028B000042203A92046FFF717F8002801D000F0F2
:1028C0009BF80C2203A92046FFF70EF8002801D040
:1028D00000F092F82046FEF7BCF80EB010BD80B5AF
:1028E0004248434901604FF4E13141600021816079
:1028F000C16001610C21416100218161C1610162FE
:102900004162FFF78BFA002802D0BDE8014073E076
:1029100001BD00006730FD3DDB0FC94010B586B03A
:102920000022142101A800F0E9FB3248016841F0BF
:1029300004010160016801F004010091009901683F
:1029400041F001010160016801F00101009100996D
:10295000016841F002010160006800F0020000908F
:1029600000980A4C002222212046FEF786F92220F8
:1029700001900120029000200390049001A92046BC
:10298000FEF7D6F806B010BD00003443000400483E
:1029900090000020DC0000203C0100202C010020E1
:1029A00000C02C406C010020700100207401002048
:1029B00000807140008041400000244078010020E8
:1029C0007C010020182D4454FB211940FB2119C023
:1029D000FB210940800100200C0000200D00002098
:1029E00090100240005C0040BB7C70001000002092
:1029F000003801404C1002407047000010B5002420
:102A00000320FEF7A4F92046FEF7E8FD002801D0D8
:102A1000012401E0FDF7A6FF204610BD38B50446AD
:102A2000FEF776F8054614F1010F02D0044800685D
:102A30000419FEF76DF8401BA042FAD331BD00BF68
:102A4000040000202349086070472DE9F24183B05B
:102A5000064615461F460A9C200001D14FF47A74A1
:102A60007600DFF870800094012303AA3146D8F87D
:102A70000000FDF7E4FB0294284601900097012333
:102A80009DF80C203146D8F80000FDF745FD1249AD
:102A90000870002801D1284600E0FF2004B0BDE8FE
:102AA000F08104B56B46012200F001F802BD1FB5AC
:102AB0004FF47A7402940192009301230A46400075
:102AC000014604480068FDF75FFC401E8041C00FCE
:102AD00004B010BD50010020880100202DE9F04114
:102AE00000273A4C3A4D3B4EDFF8EC8014E00A20C8
:102AF000FFF794FF304600F040F8D8F80000316846
:102B00000818C8F800002068716808182060286854
:102B1000B168081828607F1C3846C0B20A28E6DB76
:102B2000D8F800000A2190FBF1F02C4908602068D9
:102B30000A2190FBF1F02A49086028680A2190FBDD
:102B4000F1F028490860BDE8F08180B500223E21FF
:102B50006820FFF7A6FF072215216820FFF7A1FFD5
:102B60001E2216216820FFF79CFF002217216820F3
:102B7000FFF797FFBDE80140B0E738B504461A4DAE
:102B8000002000902B4608221B216820FFF75DFFE4
:102B9000A878E97841EA002110480068091A216004
:102BA0002879697941EA00210D480068091A6160B5
:102BB000A879E97941EA00210A480068091AA16068
:102BC0002878697841EA0021E16031BD6401002084
:102BD000680100201C010020600100205401002039
:102BE000580100205C010020480100200A460146EF
:102BF0000D20FFF756BF80B501210B20FFF7F6FF30
:102C00001D210920BDE80440F0E71FB5044600205F
:102C1000009001AB082201460D20FFF716FF9DF83A
:102C200004009DF8051041EA002121609DF806008E
:102C30009DF8071041EA002161609DF808009DF8A9
:102C4000091041EA0021A1601FBD0000C11768B151
:102C50004840401AB0FA80F29040D21CC907C2F531
:102C6000846241EA025202EBD02140057047000025
:102C7000F0B540F2FF7581EA030C0CF0004C15EA48
:102C800011541DBF15EA1357AC42AF42E5E0BC41F9
:102C9000C1F31301C3F31303801A994143F4801362
:102CA00004D2641E4000494180185941C90241EADA
:102CB0005051B1FBF3F603FB1611A2FB0675D7EBDF
:102CC000C020A94102D2761E80185941C90241EAAA
:102CD0005051B1FBF3FE03FB1E11A2FB0E75D7EBA7
:102CE000C020A94103D2AEF1010E801859418902DA
:102CF00041EA9051760546EA8E2EB1FBF3F603FBCE
:102D00001611A2FB0675D7EB8020A94102D2761ED0
:102D100080185941C90241EA50514EEA060EB1FBF2
:102D2000F3F603FB1611A2FB0675D7EBC020A941F1
:102D300002D2761E80185941C90241EA5051B1FBB6
:102D4000F3F703FB1711A2FB0735D3EBC020A94112
:102D500067F100070CBF004247F0010766F3D52773
:102D60004FEA1E31B80814F5806412DDBD0775F115
:102D7000004250EB0E5051EB045111F5801F5CBF27
:102D800041EA0C01F0BD4CF07F6141F0E0410020D0
:102D9000F0BDBD076D0840EA0E5041F48011D4F13A
:102DA0000104B4F120060ADAC4F120060200E04072
:102DB00001FA06F3E1401843B24015430EE0342C0B
:102DC00013DCC6F1200445EA40056D0820FA06F23E
:102DD000154321FA06F0A1400D43002175F1004290
:102DE00050F1000051EB0C01F0BD00205FEA0C0136
:102DF000F0BDCFB992185B41B3FA83F704BFB2FAC2
:102E000082F6BF190B3FB7F120062FBF02FA06F377
:102E1000BB40C7F1200622FA06F638BF3343BA405A
:102E20001CB1E419641E33E77F4231F00041B1FA6E
:102E300081F404BFB0FA80F6A4190B3CB4F120066B
:102E40002FBF00FA06F1A140C4F1200620FA06F6D1
:102E500038BF3143A0403C1B1AE7AC421ABF05EA19
:102E60001357AF4212E050EA41061CBF52EA430634
:102E7000BFE750EA4107304661461CBF41EA0551B1
:102E8000F0BD52EA430C08BFC143F0BD00204FF42F
:102E9000001616EB410F98BF16EB430F08BF16EB59
:102EA000410F24BFC14305E016EB430F0CBF614641
:102EB0004CEA0551F0BD000001F000428B1AA3F16D
:102EC0006051B1F5801F0ADBB1F17F6F1FD242EA7A
:102ED000C102C10071F1004142EB507070470B1507
:102EE000C3F10903212B10D2890241EA90518002DB
:102EF0000128494141F0004121FA03F0C3F12003C8
:102F0000994071F1004150417047100070476FF0D7
:102F1000000013EB103F5CBF000E42EAC050704748
:102F200070B44FF0004591EA030F40F161836B40AC
:102F3000841A71EB030604D26E40001BB1411219D2
:102F400073414FF4001C1CEB410F34BF7CEB430674
:102F500083E00C0DA4EB1356362E00F37C80012E7B
:102F600045EAC32341DC43EA525312BFD202920224
:102F70005B08240545EAC12141EA5051D2EBC0204B
:102F8000994125D407D1B0FA80F610FA06F162D043
:102F90000020203608E0B1FA81F6B140C6F12002E7
:102FA00020FA02F21143B0404FEAF474B4EB4654F5
:102FB00034F001064FEA74040AD8D6F50016760DEF
:102FC00004F00044F04061FA06F25040F1404840FD
:102FD000C00A40EA415021F0004128BF5FEA500595
:102FE00050F1000044EBD12135E0DB0A45EAC12174
:102FF000C90AB6F120050EDD42EA0242120CC5F103
:10300000200603FA06F6EB4042EA06056D429841B7
:1030100061F100010DE062FA06F5F240554063FAF5
:1030200006FC82EA0C02F3405A406D42904161EB8B
:10303000030111F4801F05D1641E620502D06D00EA
:103040004041494121F48011430875F1004350F19A
:10305000000041EB045170BC70471CEB410F15D2CE
:1030600023F0004352EA43060BD04FEA4C0CBCEB72
:10307000410F04D80C0D661E342EB7DDEBE7801A25
:10308000994150EA410608BF0021E4E708BF1CEB64
:10309000430F28BF6FF00001DDE7000041EC100B8B
:1030A00001BD80B553EC112B51EC100B00F00AFB65
:1030B000F4E70000C0F3C75181B1FF2906D0C11069
:1030C000400721F0E04101F16051704741020CBF1F
:1030D00040F4E0016FF000410020704700F0004133
:1030E00000020AD0B0FA80FC00FA0CF001F1605145
:1030F000A1EB0C5101EBD0214005704762F30F2288
:1031000062F31F4200B500BF130096469446103983
:1031100028BFA0E80C50FAD85FEA417C28BF0CC059
:1031200048BF40F8042BC90728BF20F8022B48BF2E
:1031300000F8012B00BD00000248016841F48071D5
:1031400001607047007000402DE9FC4705460024EF
:103150002746DFF86062286800051FD5E86B002865
:103160000BD0B0F5000F03D0B0F5400F0CD00AE043
:10317000306840F48030306006E02146281D00F0C1
:103180001BF9044600E00124200006D1F16F21F470
:103190004001E86B0143F16700E02746286880039F
:1031A0006AD54FF00008F06CC0000AD4F06C40F013
:1031B0008050F064F06C00F08050009000984FF068
:1031C0000108DFF81C93D9F8000040F48070C9F8BA
:1031D0000000FDF79DFC8246D9F80000C00506D42A
:1031E000FDF796FCA0EB0A000328F5D3032420008A
:1031F0003AD1DFF8F092D9F8000010F4407014D002
:10320000296D884211D0D9F8000020F44070D9F817
:10321000001041F48031C9F80010D9F8001021F4F1
:103220008031C9F80010C9F80000C0070FD5FDF7BC
:103230006FFC8246D9F80000800708D4FDF768FCCF
:10324000A0EB0A0041F289318842F3D30324200025
:1032500008D1D9F8001021F44071286D0143C9F854
:10326000001002E0274600E02746B8F1010F03D125
:10327000F06C20F08050F0642878C00705D5F16F1D
:103280008908286A50EA8101F1672878800705D506
:10329000F16F21F00C01686A0143F167287880061C
:1032A00005D5F16F21F44061A86A0143F1672868F0
:1032B000800505D5F16F21F44021686B0143F1676A
:1032C0002868400505D5F16F21F44011A86B014332
:1032D000F1672878400605D5F16F21F44051E86A7E
:1032E0000143F1672868C00505D5F16F21F440312D
:1032F000286B0143F1672868800418D5F16F21F02D
:103300004061286C0143F167286CB0F1006F04D173
:10331000306840F48010306009E0B0F1806F06D171
:103320000121281D00F048F8010000D00746286858
:10333000400318D5F16F21F04061686C0143F167DB
:10334000686CB0F1006F04D1306840F480103060D8
:1033500009E0B0F1806F06D10121281D00F02CF8A2
:10336000010000D007462868400410D5F16F21F015
:103370004051A86C0143F167A86CB0F1805F06D1A1
:103380000221281D00F018F8010000D00746286827
:10339000000405D5F16F21F08041E86C0143F1672D
:1033A0003846BDE8F687DFF84001016841F00401C6
:1033B000016070470C1002402DE9F04107460C46B1
:1033C00000253868484EF16811F0030F0FD0F168FE
:1033D00001F00301814208D1002806D0F068C0F353
:1033E0000210401C7968884226D0012524E001287B
:1033F00004D015D303280BD005D311E03168890719
:103400000FD401250DE0316849050AD4012508E0F3
:103410003168890305D43168490302D4012500E0ED
:103420000125290008D1F16821F07301084379686A
:10343000491E40EA0110F06028004DD1306820F0AC
:1034400080603060FDF764FB80463068000106D57F
:10345000FDF75EFBA0EB08000328F6D30325280048
:103460003AD1B968002C09D132692048024052EAA9
:103470000121F86841EAC061316117E0012C32692D
:103480000AD11B48024052EA012138694008401E17
:1034900041EA4051316109E01648024052EA0121F7
:1034A00078694008401E41EA40613161306840F06F
:1034B00080603060FDF72CFB04463068000105D4C5
:1034C000FDF726FB001B0328F7D30325280003D1B3
:1034D0003169B869014331612846BDE8F0810000D7
:1034E000007000409010024000100240FF80FF0773
:1034F000FF809FFFFF80FFF910B400F14002537876
:10350000202B20D11378012B01D102201CE00123B4
:1035100013702423537003681C68640864001C60E3
:1035200003681C6824F480541C6003681C682143F1
:1035300019600068016841F00101016020205070AD
:103540000020107000E0022010BC704710B400F1A1
:1035500040025378202B1ED11378012B01D1022079
:103560001AE0012313702423537003681C68640855
:1035700064001C6003681C6824F4706444EA01243D
:103580001C600068016841F001010160202050705A
:103590000020107000E0022010BC704770B400F1F1
:1035A0003C031A78012A01D102201CE001221A7082
:1035B00002225A7004686568A6680C4A944203D1D6
:1035C00025F470054A68154326F080068A6816437C
:1035D00025F0700509680D4365600068866001206C
:1035E00058700020187070BC70470000002C01401B
:1035F000841A71EB030603D2001BB1411219734107
:103600004FF4001C1CEB410F34BF7CEB430442E041
:103610000C0DA4EB1356352E4FDC45EAC323DB0A11
:1036200045EAC121C912B6F120050DDD63FA05F6A0
:10363000EB4086EA0305124218BF45F00105C018A9
:1036400051F100010CD213E062FA06F5F240554048
:10365000F3415A40B340F3405A408018594107D3D0
:1036600049085FEA30005FEA350528BF45F00105EB
:1036700001F58011420875F1004250F1000041EB64
:1036800004514E0016F5001F70BC38BF7047002073
:10369000090D090570471CEB410F10D252EA430691
:1036A0000BD0BCEB410F05D80C0DAB43661E342E7E
:1036B000B6DD02E0AB438018594170BC704770BC66
:1036C0007047000010B52DED048B41EC180B43EC56
:1036D000192B51EC190B48004015401C3AD051EC05
:1036E000180B48004015401C34D0C80F08D021F0FA
:1036F000004053EC182B034643EC182B082400E041
:10370000002451EC190BC80F08D021F0004053ECF5
:10371000192B034643EC192B84F0060451EC190BCA
:1037200053EC182B00F06CF804D2FFF7A1FA41EC2F
:10373000100B4EE031F0004104BF00289FED2C0B30
:1037400049D051EC180B53EC192BFFF791FA41ECCF
:10375000100B40E051EC180B48004015401C04D100
:10376000090318BF51EC180B3ED151EC190B48005E
:103770004015401C04D1090318BF51EC190B33D17B
:1037800051EC190B48004015401C0CD109030AD11B
:1037900051EC180B48004015401C04D1090308BF28
:1037A0009FED150B01D09FED120B51EC180BC80FBC
:1037B00014BF0824002451EC190BC80F18BF84F063
:1037C000060451EC180B48004015401C03D10903B6
:1037D00001D184F00204BDEC048B2246BDE8104008
:1037E00051EC100B00F024B8BDEC048B10BD00BFF1
:1037F0000000000000000000000000000000F03F9A
:103800004FF4001C1CEB410F94BF1CEB430F09E06D
:1038100041EA030C50EA4C0C52EA0C0C03D29942D8
:1038200008BF9042704714BF8B428242704700002D
:10383000D0B52DED048B41EC180B144653EC182B2E
:1038400000206E4900F0DCF808BF9FED578B00F0B8
:10385000838051EC180B564A564B00F0E1F81DD806
:103860009FED559B53EC182B51EC190B00F0F0F821
:103870000022534BFFF754FB06460F4653EC182B20
:1038800051EC190BFFF74CFB02460B46304639460C
:10389000FFF7EEF941EC180B44F0010451EC180B62
:1038A00021F0004101224FF0795300F0B9F853D8CC
:1038B00053EC182B51EC180B00F0CAF841EC190B23
:1038C00053EC182B00F0C4F806460F4653EC192BA6
:1038D0003C483D4900F0BCF83C4A3D4BFFF720FB1B
:1038E00053EC192B00F0B4F83A4A3B4BFFF718FBA6
:1038F00032463B4600F0ACF853EC182BFFF710FBB8
:1039000006460F4653EC192B3448354900F0A0F811
:10391000344A354BFFF704FB53EC192B00F098F8B1
:10392000324A334BFFF7FCFA53EC192B00F090F8B6
:10393000304A314BFFF7F4FA53EC192B00F088F8BA
:1039400000222E4BFFF7ECFA02460B463046394672
:10395000FFF78EF941EC180BA00705D551EC180BB9
:1039600081F0004141EC180B14F007020CD00D4B14
:103970007B44303303EBC20251EC180B53681268DE
:10398000FFF7CEFA41EC180B200705D551EC180BC8
:1039900081F0004141EC180B51EC180BBDEC048B8D
:1039A000D0BD00BF9C020000182D4454FB21E93F0C
:1039B00057CD9E5E1426D13FAA4C58E87AB6FB3FFD
:1039C0000000F0BF845D57134B57B03FB2934C19C2
:1039D000ED5EE43FBEDE02B90240F83FDE39028F01
:1039E000C7C0743F8AAB1283000CC83F24D7E508D8
:1039F000B6D8F03F0F34580E5895FD3F0000F03F09
:103A000090420CD141EA030C50EA4C0C07D0994289
:103A100005D14FF4001C1CEB410F38BF89427047A1
:103A20004FF4001C1CEB410F94BF1CEB430F09E04B
:103A300041EA030C50EA4C0C52EA0C0C03D28B42C4
:103A400008BF8242704714BF9942904270470000FD
:103A5000B0B581EA030C0CF0004C40F2FF7515EA9A
:103A600011541DBF15EA1357AC42AF4239E0E419B7
:103A700023EA455343F48013C90241F0004141EA6F
:103A8000505EC7021100A7FB020200284FF00000A1
:103A9000EEFB01204FF00001E3FB072118BF42F0CD
:103AA0000102401800214941E3FB0E01A4F58064A6
:103AB0000F0302D252004041494154F101046CDD30
:103AC000470872F1004250F1000051EB0451A1F59A
:103AD00080115CBF41EA0C01B0BD4CEA05510020E9
:103AE000B0BD05EA1357AC4214BFAF4241E050EA03
:103AF000410E1CBF52EA430E02E061460020B0BDF9
:103B000024423C441BD15FEA070EF6D0090302BFF2
:103B100001460020AEF1140EB1FA81F7AEEB0704B6
:103B200001FA07FE0C37C7F1200100FA07F7C84079
:103B30004EEA000E23EA455343F48013A2E733F024
:103B40000043B3FA83F704BFB2FA82FE77440B3F17
:103B5000E41BB7F1200E2FBF02FA0EF3BB40C7F1F2
:103B6000200E22FA0EFE38BF43EA0E03BA40641C50
:103B700082E750EA410E14BF52EA430E6FF0000193
:103B80004FF4001717EB430F8ABF194617EB410F8D
:103B9000B5E74CEA05510020B0BDD4F10104B4F101
:103BA00020070FDAC4F12007520828BF42F00102B3
:103BB00010FA07F501FA07F7E1BF2A43E04038435E
:103BC000E1400FE0352C98DCC7F1200452EA4002B6
:103BD00020FA07F218BF42F0010231FA07F0A140C3
:103BE0000A43002172F1004250F1000051EB0C0138
:103BF000B0BD00000E48016841F4700101600D493C
:103C0000086840F001000860002088600A680A48DF
:103C100002400A604FF48050C860086820F4802099
:103C20000860002088614FF0006004490860704718
:103C300088ED00E000100240FFFFF6EA08ED00E02A
:103C4000000000000000000066732D3852C1E03F04
:103C5000182D4454FB21F93F66732D3852C1F03FB3
:103C6000182D4454FB21F93F66732D3852C1004092
:103C7000182D4454FB2109403FD038C6A6F104401A
:103C8000A0860100400D0300801A060000350C00DC
:103C900040420F0080841E0000093D0000127A009F
:103CA0000024F40000366E010048E801006CDC02DC
:103CB00010B5074979441831064C7C44163404E0A9
:103CC0000A68081D114488470146A142F8D110BD79
:103CD0002C0000004C0000004EF68851CEF200018E
:103CE000086840F470000860BFF34F8FBFF36F8F18
:103CF0004FF00070E1EE100A70470000F7D0FFFFB0
:103D00007C010000100000200000000023E8FFFFFD
:103D100010000000AC0000000000002000000000C7
:103D20007047FEE7FEE7FEE7FEE770477047704723
:103D300000F006B80148FDF721BD0000DC000020BE
:103D400003490A680348006882180A60704700BF88
:103D5000840100200400002000F00DF8002801D0AC
:103D6000FFF7A6FFAFF300800020AFF30080FEF75F
:103D7000F5FB00F002F80120704700F001B80000E8
:103D80000746384600F002F8FBE7000080B5AFF3C5
:103D90000080024A11001820ABBEFBE7260002009B
:103DA00000000000000000000102030406070809EB
:103DB0000148804701480047F53B0008D13D000815
:103DC000100000000100000000093D0032960000D4
:103DD000AFF30080FFF780FFFFF7BEFF0000000099
:103DE00001020304FFF7FEBFFFF7FEBFFFF7FEBFB0
:103DF000FFF7FEBFFFF7FEBFFFF7FEBFFFF7FEBFF7
:103E0000FFF7FEBFFFF7FEBFFFF7FEBFFFF7FEBFE6
:103E1000FFF7FEBFFFF7FEBFFFF7FEBFFFF7FEBFD6
:103E2000FFF7FEBFFFF7FEBFFFF7FEBFFFF7FEBFC6
:103E3000FFF7FEBFFFF7FEBFFFF7FEBFFFF7FEBFB6
:103E4000FFF7FEBFFFF7FEBFFFF7FEBFFFF7FEBFA6
:103E5000FFF7FEBFFFF7FEBFFFF7FEBFFFF7FEBF96
:103E6000FFF7FEBFFFF7FEBFFFF7FEBFFFF7FEBF86
:103E7000FFF7FEBFFFF7FEBFFFF7FEBFFFF7FEBF76
:103E8000FFF7FEBFFFF7FEBFFFF7FEBFFFF7FEBF66
:103E9000FFF7FEBFFFF7FEBFFFF7FEBFFFF7FEBF56
:103EA000FFF7FEBFFFF7FEBFFFF7FEBFFFF7FEBF46
:103EB000FFF7FEBFFFF7FEBFFFF7FEBFFFF7FEBF36
:103EC000FFF7FEBFFFF7FEBFFFF7FEBFFFF7FEBF26
:0400000508003DD1E1
:00000001FF
